{
  "contractName": "HealthCare",
  "abi": [
    {
      "inputs": [
        {
          "internalType": "address",
          "name": "_token",
          "type": "address"
        }
      ],
      "stateMutability": "nonpayable",
      "type": "constructor"
    },
    {
      "anonymous": false,
      "inputs": [
        {
          "indexed": false,
          "internalType": "address",
          "name": "Doctor",
          "type": "address"
        },
        {
          "indexed": false,
          "internalType": "uint256",
          "name": "Fee",
          "type": "uint256"
        }
      ],
      "name": "DoctorAdded",
      "type": "event"
    },
    {
      "anonymous": false,
      "inputs": [
        {
          "indexed": false,
          "internalType": "address",
          "name": "Doctor",
          "type": "address"
        },
        {
          "indexed": false,
          "internalType": "uint256",
          "name": "Fee",
          "type": "uint256"
        }
      ],
      "name": "FeeChanged",
      "type": "event"
    },
    {
      "anonymous": false,
      "inputs": [
        {
          "indexed": false,
          "internalType": "address",
          "name": "Patient",
          "type": "address"
        }
      ],
      "name": "PatientAdded",
      "type": "event"
    },
    {
      "inputs": [
        {
          "internalType": "uint256",
          "name": "",
          "type": "uint256"
        }
      ],
      "name": "allDoctors",
      "outputs": [
        {
          "internalType": "address",
          "name": "",
          "type": "address"
        }
      ],
      "stateMutability": "view",
      "type": "function",
      "constant": true
    },
    {
      "inputs": [
        {
          "internalType": "uint256",
          "name": "",
          "type": "uint256"
        }
      ],
      "name": "allPatients",
      "outputs": [
        {
          "internalType": "address",
          "name": "",
          "type": "address"
        }
      ],
      "stateMutability": "view",
      "type": "function",
      "constant": true
    },
    {
      "inputs": [
        {
          "internalType": "address",
          "name": "",
          "type": "address"
        },
        {
          "internalType": "address",
          "name": "",
          "type": "address"
        },
        {
          "internalType": "uint256",
          "name": "",
          "type": "uint256"
        }
      ],
      "name": "docData",
      "outputs": [
        {
          "internalType": "string",
          "name": "",
          "type": "string"
        }
      ],
      "stateMutability": "view",
      "type": "function",
      "constant": true
    },
    {
      "inputs": [
        {
          "internalType": "address",
          "name": "",
          "type": "address"
        }
      ],
      "name": "docFee",
      "outputs": [
        {
          "internalType": "uint256",
          "name": "",
          "type": "uint256"
        }
      ],
      "stateMutability": "view",
      "type": "function",
      "constant": true
    },
    {
      "inputs": [
        {
          "internalType": "address",
          "name": "",
          "type": "address"
        },
        {
          "internalType": "address",
          "name": "",
          "type": "address"
        }
      ],
      "name": "docPatient",
      "outputs": [
        {
          "internalType": "bool",
          "name": "",
          "type": "bool"
        }
      ],
      "stateMutability": "view",
      "type": "function",
      "constant": true
    },
    {
      "inputs": [
        {
          "internalType": "address",
          "name": "",
          "type": "address"
        },
        {
          "internalType": "uint256",
          "name": "",
          "type": "uint256"
        }
      ],
      "name": "docPatientList",
      "outputs": [
        {
          "internalType": "address",
          "name": "",
          "type": "address"
        }
      ],
      "stateMutability": "view",
      "type": "function",
      "constant": true
    },
    {
      "inputs": [
        {
          "internalType": "address",
          "name": "",
          "type": "address"
        }
      ],
      "name": "isDoc",
      "outputs": [
        {
          "internalType": "bool",
          "name": "",
          "type": "bool"
        }
      ],
      "stateMutability": "view",
      "type": "function",
      "constant": true
    },
    {
      "inputs": [
        {
          "internalType": "address",
          "name": "",
          "type": "address"
        }
      ],
      "name": "isPatient",
      "outputs": [
        {
          "internalType": "bool",
          "name": "",
          "type": "bool"
        }
      ],
      "stateMutability": "view",
      "type": "function",
      "constant": true
    },
    {
      "inputs": [],
      "name": "owner",
      "outputs": [
        {
          "internalType": "address",
          "name": "",
          "type": "address"
        }
      ],
      "stateMutability": "view",
      "type": "function",
      "constant": true
    },
    {
      "inputs": [
        {
          "internalType": "address",
          "name": "",
          "type": "address"
        },
        {
          "internalType": "uint256",
          "name": "",
          "type": "uint256"
        }
      ],
      "name": "patientData",
      "outputs": [
        {
          "internalType": "string",
          "name": "",
          "type": "string"
        }
      ],
      "stateMutability": "view",
      "type": "function",
      "constant": true
    },
    {
      "inputs": [
        {
          "internalType": "address",
          "name": "",
          "type": "address"
        },
        {
          "internalType": "uint256",
          "name": "",
          "type": "uint256"
        }
      ],
      "name": "prescription",
      "outputs": [
        {
          "internalType": "string",
          "name": "file",
          "type": "string"
        },
        {
          "internalType": "string",
          "name": "prescription",
          "type": "string"
        }
      ],
      "stateMutability": "view",
      "type": "function",
      "constant": true
    },
    {
      "inputs": [],
      "name": "addPatient",
      "outputs": [],
      "stateMutability": "nonpayable",
      "type": "function"
    },
    {
      "inputs": [],
      "name": "getAllPatients",
      "outputs": [
        {
          "internalType": "address[]",
          "name": "",
          "type": "address[]"
        }
      ],
      "stateMutability": "view",
      "type": "function",
      "constant": true
    },
    {
      "inputs": [],
      "name": "allPatientsData",
      "outputs": [
        {
          "internalType": "string[]",
          "name": "",
          "type": "string[]"
        }
      ],
      "stateMutability": "view",
      "type": "function",
      "constant": true
    },
    {
      "inputs": [],
      "name": "allPrescriptions",
      "outputs": [
        {
          "components": [
            {
              "internalType": "string",
              "name": "file",
              "type": "string"
            },
            {
              "internalType": "string",
              "name": "prescription",
              "type": "string"
            }
          ],
          "internalType": "struct HealthCare.DATA[]",
          "name": "",
          "type": "tuple[]"
        }
      ],
      "stateMutability": "view",
      "type": "function",
      "constant": true
    },
    {
      "inputs": [
        {
          "internalType": "uint256",
          "name": "_fees",
          "type": "uint256"
        }
      ],
      "name": "addDoctor",
      "outputs": [],
      "stateMutability": "nonpayable",
      "type": "function"
    },
    {
      "inputs": [
        {
          "internalType": "uint256",
          "name": "_fees",
          "type": "uint256"
        }
      ],
      "name": "changeFee",
      "outputs": [],
      "stateMutability": "nonpayable",
      "type": "function"
    },
    {
      "inputs": [],
      "name": "getAllDoctors",
      "outputs": [
        {
          "internalType": "address[]",
          "name": "",
          "type": "address[]"
        }
      ],
      "stateMutability": "view",
      "type": "function",
      "constant": true
    },
    {
      "inputs": [
        {
          "internalType": "string",
          "name": "_fileHash",
          "type": "string"
        }
      ],
      "name": "addFile",
      "outputs": [],
      "stateMutability": "nonpayable",
      "type": "function"
    },
    {
      "inputs": [
        {
          "internalType": "address",
          "name": "_doc",
          "type": "address"
        },
        {
          "internalType": "string",
          "name": "_fileHash",
          "type": "string"
        },
        {
          "internalType": "uint256",
          "name": "_amount",
          "type": "uint256"
        }
      ],
      "name": "sendFile",
      "outputs": [],
      "stateMutability": "nonpayable",
      "type": "function"
    },
    {
      "inputs": [
        {
          "internalType": "address",
          "name": "_patient",
          "type": "address"
        },
        {
          "internalType": "string",
          "name": "_filehash",
          "type": "string"
        },
        {
          "internalType": "string",
          "name": "_prescription",
          "type": "string"
        }
      ],
      "name": "sendPrescription",
      "outputs": [],
      "stateMutability": "nonpayable",
      "type": "function"
    },
    {
      "inputs": [],
      "name": "allPatient",
      "outputs": [
        {
          "internalType": "address[]",
          "name": "",
          "type": "address[]"
        },
        {
          "internalType": "string[][]",
          "name": "",
          "type": "string[][]"
        }
      ],
      "stateMutability": "nonpayable",
      "type": "function"
    }
  ],
  "bytecode": "0x60806040523480156200001157600080fd5b506040516200367c3803806200367c8339818101604052620000379190810190620000d6565b806000806101000a81548173ffffffffffffffffffffffffffffffffffffffff021916908373ffffffffffffffffffffffffffffffffffffffff16021790555033600160006101000a81548173ffffffffffffffffffffffffffffffffffffffff021916908373ffffffffffffffffffffffffffffffffffffffff1602179055505062000150565b600081519050620000d08162000136565b92915050565b600060208284031215620000e957600080fd5b6000620000f984828501620000bf565b91505092915050565b60006200010f8262000116565b9050919050565b600073ffffffffffffffffffffffffffffffffffffffff82169050919050565b620001418162000102565b81146200014d57600080fd5b50565b61351c80620001606000396000f3fe608060405234801561001057600080fd5b50600436106101425760003560e01c80638508f4f6116100b8578063be57cb511161007c578063be57cb51146103a1578063d8f608df146103bd578063eb9b9b64146103ed578063f0d9509014610409578063f4ba07bf14610427578063fe0ceed71461044357610142565b80638508f4f6146102fa5780638da5cb5b146103195780638f9c79ed1461033757806391dd622714610367578063a505612b1461039757610142565b80634551103f1161010a5780634551103f146101ff5780635a520da11461021d5780635c62adc21461024d5780635d0ec1381461027d5780636622e48f146102ae5780636a1db1bf146102de57610142565b806318a231a91461014757806321e2c7051461016557806333f4b583146101955780633aa93b45146101b35780634177c3ee146101e3575b600080fd5b61014f610473565b60405161015c9190612fa1565b60405180910390f35b61017f600480360361017a91908101906127be565b610501565b60405161018c9190612ed4565b60405180910390f35b61019d61054c565b6040516101aa9190612ffa565b60405180910390f35b6101cd60048036036101c89190810190612624565b610672565b6040516101da9190613212565b60405180910390f35b6101fd60048036036101f89190810190612757565b61068a565b005b610207610b62565b604051610214919061301c565b60405180910390f35b61023760048036036102329190810190612864565b610d42565b6040516102449190612ed4565b60405180910390f35b610267600480360361026291908101906127be565b610d7e565b6040516102749190613059565b60405180910390f35b610297600480360361029291908101906127be565b610e44565b6040516102a592919061307b565b60405180910390f35b6102c860048036036102c39190810190612689565b610fb2565b6040516102d59190613059565b60405180910390f35b6102f860048036036102f39190810190612864565b611085565b005b61030261122b565b604051610310929190612fc3565b60405180910390f35b61032161167b565b60405161032e9190612ed4565b60405180910390f35b610351600480360361034c9190810190612624565b6116a1565b60405161035e919061303e565b60405180910390f35b610381600480360361037c919081019061264d565b6116c1565b60405161038e919061303e565b60405180910390f35b61039f6116f0565b005b6103bb60048036036103b69190810190612864565b61190a565b005b6103d760048036036103d29190810190612864565b611b6b565b6040516103e49190612ed4565b60405180910390f35b61040760048036036104029190810190612823565b611ba7565b005b610411611cb6565b60405161041e9190612fa1565b60405180910390f35b610441600480360361043c91908101906126d8565b611d44565b005b61045d60048036036104589190810190612624565b6120ed565b60405161046a919061303e565b60405180910390f35b606060058054806020026020016040519081016040528092919081815260200182805480156104f757602002820191906000526020600020905b8160009054906101000a900473ffffffffffffffffffffffffffffffffffffffff1673ffffffffffffffffffffffffffffffffffffffff16815260200190600101908083116104ad575b5050505050905090565b6009602052816000526040600020818154811061051a57fe5b906000526020600020016000915091509054906101000a900473ffffffffffffffffffffffffffffffffffffffff1681565b6060600760003373ffffffffffffffffffffffffffffffffffffffff1673ffffffffffffffffffffffffffffffffffffffff168152602001908152602001600020805480602002602001604051908101604052809291908181526020016000905b82821015610669578382906000526020600020018054600181600116156101000203166002900480601f0160208091040260200160405190810160405280929190818152602001828054600181600116156101000203166002900480156106555780601f1061062a57610100808354040283529160200191610655565b820191906000526020600020905b81548152906001019060200180831161063857829003601f168201915b5050505050815260200190600101906105ad565b50505050905090565b60066020528060005260406000206000915090505481565b60011515600460003373ffffffffffffffffffffffffffffffffffffffff1673ffffffffffffffffffffffffffffffffffffffff16815260200190815260200160002060009054906101000a900460ff1615151461071d576040517f08c379a0000000000000000000000000000000000000000000000000000000008152600401610714906130b2565b60405180910390fd5b60011515600260008573ffffffffffffffffffffffffffffffffffffffff1673ffffffffffffffffffffffffffffffffffffffff16815260200190815260200160002060009054906101000a900460ff161515146107b0576040517f08c379a00000000000000000000000000000000000000000000000000000000081526004016107a790613152565b60405180910390fd5b600660008473ffffffffffffffffffffffffffffffffffffffff1673ffffffffffffffffffffffffffffffffffffffff168152602001908152602001600020548114610831576040517f08c379a0000000000000000000000000000000000000000000000000000000008152600401610828906131b2565b60405180910390fd5b6000809054906101000a900473ffffffffffffffffffffffffffffffffffffffff1673ffffffffffffffffffffffffffffffffffffffff1663d77301c23033846040518463ffffffff1660e01b815260040161088f93929190612f6a565b600060405180830381600087803b1580156108a957600080fd5b505af11580156108bd573d6000803e3d6000fd5b505050506000809054906101000a900473ffffffffffffffffffffffffffffffffffffffff1673ffffffffffffffffffffffffffffffffffffffff166323b872dd3330846040518463ffffffff1660e01b815260040161091f93929190612f0a565b602060405180830381600087803b15801561093957600080fd5b505af115801561094d573d6000803e3d6000fd5b505050506040513d601f19601f8201168201806040525061097191908101906127fa565b50600960008473ffffffffffffffffffffffffffffffffffffffff1673ffffffffffffffffffffffffffffffffffffffff168152602001908152602001600020339080600181540180825580915050600190039060005260206000200160009091909190916101000a81548173ffffffffffffffffffffffffffffffffffffffff021916908373ffffffffffffffffffffffffffffffffffffffff1602179055506001600a60008573ffffffffffffffffffffffffffffffffffffffff1673ffffffffffffffffffffffffffffffffffffffff16815260200190815260200160002060003373ffffffffffffffffffffffffffffffffffffffff1673ffffffffffffffffffffffffffffffffffffffff16815260200190815260200160002060006101000a81548160ff021916908315150217905550600b60008473ffffffffffffffffffffffffffffffffffffffff1673ffffffffffffffffffffffffffffffffffffffff16815260200190815260200160002060003373ffffffffffffffffffffffffffffffffffffffff1673ffffffffffffffffffffffffffffffffffffffff16815260200190815260200160002082908060018154018082558091505060019003906000526020600020016000909190919091509080519060200190610b5c92919061210d565b50505050565b6060600860003373ffffffffffffffffffffffffffffffffffffffff1673ffffffffffffffffffffffffffffffffffffffff168152602001908152602001600020805480602002602001604051908101604052809291908181526020016000905b82821015610d395783829060005260206000209060020201604051806040016040529081600082018054600181600116156101000203166002900480601f016020809104026020016040519081016040528092919081815260200182805460018160011615610100020316600290048015610c7f5780601f10610c5457610100808354040283529160200191610c7f565b820191906000526020600020905b815481529060010190602001808311610c6257829003601f168201915b50505050508152602001600182018054600181600116156101000203166002900480601f016020809104026020016040519081016040528092919081815260200182805460018160011615610100020316600290048015610d215780601f10610cf657610100808354040283529160200191610d21565b820191906000526020600020905b815481529060010190602001808311610d0457829003601f168201915b50505050508152505081526020019060010190610bc3565b50505050905090565b60038181548110610d4f57fe5b906000526020600020016000915054906101000a900473ffffffffffffffffffffffffffffffffffffffff1681565b60076020528160005260406000208181548110610d9757fe5b90600052602060002001600091509150508054600181600116156101000203166002900480601f016020809104026020016040519081016040528092919081815260200182805460018160011615610100020316600290048015610e3c5780601f10610e1157610100808354040283529160200191610e3c565b820191906000526020600020905b815481529060010190602001808311610e1f57829003601f168201915b505050505081565b60086020528160005260406000208181548110610e5d57fe5b906000526020600020906002020160009150915050806000018054600181600116156101000203166002900480601f016020809104026020016040519081016040528092919081815260200182805460018160011615610100020316600290048015610f0a5780601f10610edf57610100808354040283529160200191610f0a565b820191906000526020600020905b815481529060010190602001808311610eed57829003601f168201915b505050505090806001018054600181600116156101000203166002900480601f016020809104026020016040519081016040528092919081815260200182805460018160011615610100020316600290048015610fa85780601f10610f7d57610100808354040283529160200191610fa8565b820191906000526020600020905b815481529060010190602001808311610f8b57829003601f168201915b5050505050905082565b600b6020528260005260406000206020528160005260406000208181548110610fd757fe5b9060005260206000200160009250925050508054600181600116156101000203166002900480601f01602080910402602001604051908101604052809291908181526020018280546001816001161561010002031660029004801561107d5780601f106110525761010080835404028352916020019161107d565b820191906000526020600020905b81548152906001019060200180831161106057829003601f168201915b505050505081565b60001515600260003373ffffffffffffffffffffffffffffffffffffffff1673ffffffffffffffffffffffffffffffffffffffff16815260200190815260200160002060009054906101000a900460ff16151514611118576040517f08c379a000000000000000000000000000000000000000000000000000000000815260040161110f906130f2565b60405180910390fd5b60001515600460003373ffffffffffffffffffffffffffffffffffffffff1673ffffffffffffffffffffffffffffffffffffffff16815260200190815260200160002060009054906101000a900460ff161515146111ab576040517f08c379a00000000000000000000000000000000000000000000000000000000081526004016111a290613192565b60405180910390fd5b80600660003373ffffffffffffffffffffffffffffffffffffffff1673ffffffffffffffffffffffffffffffffffffffff168152602001908152602001600020819055507f6e45e8484c7deb5bc88cf53584446a1413266c28a965d4d134ca03c5d3f998e43382604051611220929190612f41565b60405180910390a150565b606080606080600c908051906020019061124692919061218d565b50606080600d908051906020019061125f929190612217565b5060008090505b600960003373ffffffffffffffffffffffffffffffffffffffff1673ffffffffffffffffffffffffffffffffffffffff168152602001908152602001600020805490508110156114ba57600c600960003373ffffffffffffffffffffffffffffffffffffffff1673ffffffffffffffffffffffffffffffffffffffff16815260200190815260200160002082815481106112fc57fe5b9060005260206000200160009054906101000a900473ffffffffffffffffffffffffffffffffffffffff169080600181540180825580915050600190039060005260206000200160009091909190916101000a81548173ffffffffffffffffffffffffffffffffffffffff021916908373ffffffffffffffffffffffffffffffffffffffff160217905550600d600b60003373ffffffffffffffffffffffffffffffffffffffff1673ffffffffffffffffffffffffffffffffffffffff1681526020019081526020016000206000600960003373ffffffffffffffffffffffffffffffffffffffff1673ffffffffffffffffffffffffffffffffffffffff168152602001908152602001600020848154811061141457fe5b9060005260206000200160009054906101000a900473ffffffffffffffffffffffffffffffffffffffff1673ffffffffffffffffffffffffffffffffffffffff1673ffffffffffffffffffffffffffffffffffffffff168152602001908152602001600020908060018154018082558091505060019003906000526020600020016000909190919091509080546114ac929190612277565b508080600101915050611266565b50600c600d8180548060200260200160405190810160405280929190818152602001828054801561154057602002820191906000526020600020905b8160009054906101000a900473ffffffffffffffffffffffffffffffffffffffff1673ffffffffffffffffffffffffffffffffffffffff16815260200190600101908083116114f6575b5050505050915080805480602002602001604051908101604052809291908181526020016000905b8282101561166b57838290600052602060002001805480602002602001604051908101604052809291908181526020016000905b82821015611658578382906000526020600020018054600181600116156101000203166002900480601f0160208091040260200160405190810160405280929190818152602001828054600181600116156101000203166002900480156116445780601f1061161957610100808354040283529160200191611644565b820191906000526020600020905b81548152906001019060200180831161162757829003601f168201915b50505050508152602001906001019061159c565b5050505081526020019060010190611568565b5050505090509350935050509091565b600160009054906101000a900473ffffffffffffffffffffffffffffffffffffffff1681565b60046020528060005260406000206000915054906101000a900460ff1681565b600a6020528160005260406000206020528060005260406000206000915091509054906101000a900460ff1681565b60001515600260003373ffffffffffffffffffffffffffffffffffffffff1673ffffffffffffffffffffffffffffffffffffffff16815260200190815260200160002060009054906101000a900460ff16151514611783576040517f08c379a000000000000000000000000000000000000000000000000000000000815260040161177a90613112565b60405180910390fd5b60001515600460003373ffffffffffffffffffffffffffffffffffffffff1673ffffffffffffffffffffffffffffffffffffffff16815260200190815260200160002060009054906101000a900460ff16151514611816576040517f08c379a000000000000000000000000000000000000000000000000000000000815260040161180d906131d2565b60405180910390fd5b6001600460003373ffffffffffffffffffffffffffffffffffffffff1673ffffffffffffffffffffffffffffffffffffffff16815260200190815260200160002060006101000a81548160ff0219169083151502179055506005339080600181540180825580915050600190039060005260206000200160009091909190916101000a81548173ffffffffffffffffffffffffffffffffffffffff021916908373ffffffffffffffffffffffffffffffffffffffff1602179055507fa58cff07db0adda3ab7a40bd2f18ab57210bf38391a52ffd2e8eee6b8bdec71a336040516119009190612eef565b60405180910390a1565b60001515600260003373ffffffffffffffffffffffffffffffffffffffff1673ffffffffffffffffffffffffffffffffffffffff16815260200190815260200160002060009054906101000a900460ff1615151461199d576040517f08c379a0000000000000000000000000000000000000000000000000000000008152600401611994906130f2565b60405180910390fd5b60001515600460003373ffffffffffffffffffffffffffffffffffffffff1673ffffffffffffffffffffffffffffffffffffffff16815260200190815260200160002060009054906101000a900460ff16151514611a30576040517f08c379a0000000000000000000000000000000000000000000000000000000008152600401611a2790613192565b60405180910390fd5b6003339080600181540180825580915050600190039060005260206000200160009091909190916101000a81548173ffffffffffffffffffffffffffffffffffffffff021916908373ffffffffffffffffffffffffffffffffffffffff1602179055506001600260003373ffffffffffffffffffffffffffffffffffffffff1673ffffffffffffffffffffffffffffffffffffffff16815260200190815260200160002060006101000a81548160ff02191690831515021790555080600660003373ffffffffffffffffffffffffffffffffffffffff1673ffffffffffffffffffffffffffffffffffffffff168152602001908152602001600020819055507f116cdc7f99f6e75498b3babd17f66a95436b0f05fc7dc8fc066a3797ab7ef27d3382604051611b60929190612f41565b60405180910390a150565b60058181548110611b7857fe5b906000526020600020016000915054906101000a900473ffffffffffffffffffffffffffffffffffffffff1681565b60011515600460003373ffffffffffffffffffffffffffffffffffffffff1673ffffffffffffffffffffffffffffffffffffffff16815260200190815260200160002060009054906101000a900460ff16151514611c3a576040517f08c379a0000000000000000000000000000000000000000000000000000000008152600401611c31906131f2565b60405180910390fd5b600760003373ffffffffffffffffffffffffffffffffffffffff1673ffffffffffffffffffffffffffffffffffffffff16815260200190815260200160002081908060018154018082558091505060019003906000526020600020016000909190919091509080519060200190611cb292919061210d565b5050565b60606003805480602002602001604051908101604052809291908181526020018280548015611d3a57602002820191906000526020600020905b8160009054906101000a900473ffffffffffffffffffffffffffffffffffffffff1673ffffffffffffffffffffffffffffffffffffffff1681526020019060010190808311611cf0575b5050505050905090565b60011515600260003373ffffffffffffffffffffffffffffffffffffffff1673ffffffffffffffffffffffffffffffffffffffff16815260200190815260200160002060009054906101000a900460ff16151514611dd7576040517f08c379a0000000000000000000000000000000000000000000000000000000008152600401611dce906130d2565b60405180910390fd5b60011515600460008573ffffffffffffffffffffffffffffffffffffffff1673ffffffffffffffffffffffffffffffffffffffff16815260200190815260200160002060009054906101000a900460ff16151514611e6a576040517f08c379a0000000000000000000000000000000000000000000000000000000008152600401611e6190613132565b60405180910390fd5b60011515600a60003373ffffffffffffffffffffffffffffffffffffffff1673ffffffffffffffffffffffffffffffffffffffff16815260200190815260200160002060008573ffffffffffffffffffffffffffffffffffffffff1673ffffffffffffffffffffffffffffffffffffffff16815260200190815260200160002060009054906101000a900460ff16151514611f3a576040517f08c379a0000000000000000000000000000000000000000000000000000000008152600401611f3190613172565b60405180910390fd5b611f426122e7565b828160000181905250818160200181905250600860008573ffffffffffffffffffffffffffffffffffffffff1673ffffffffffffffffffffffffffffffffffffffff1681526020019081526020016000208190806001815401808255809150506001900390600052602060002090600202016000909190919091506000820151816000019080519060200190611fd9929190612301565b506020820151816001019080519060200190611ff6929190612301565b5050506000809054906101000a900473ffffffffffffffffffffffffffffffffffffffff1673ffffffffffffffffffffffffffffffffffffffff1663a9059cbb33600660003373ffffffffffffffffffffffffffffffffffffffff1673ffffffffffffffffffffffffffffffffffffffff168152602001908152602001600020546040518363ffffffff1660e01b8152600401612094929190612f41565b602060405180830381600087803b1580156120ae57600080fd5b505af11580156120c2573d6000803e3d6000fd5b505050506040513d601f19601f820116820180604052506120e691908101906127fa565b5050505050565b60026020528060005260406000206000915054906101000a900460ff1681565b828054600181600116156101000203166002900490600052602060002090601f016020900481019282601f1061214e57805160ff191683800117855561217c565b8280016001018555821561217c579182015b8281111561217b578251825591602001919060010190612160565b5b5090506121899190612381565b5090565b828054828255906000526020600020908101928215612206579160200282015b828111156122055782518260006101000a81548173ffffffffffffffffffffffffffffffffffffffff021916908373ffffffffffffffffffffffffffffffffffffffff160217905550916020019190600101906121ad565b5b50905061221391906123a6565b5090565b828054828255906000526020600020908101928215612266579160200282015b828111156122655782518290805190602001906122559291906123e9565b5091602001919060010190612237565b5b5090506122739190612449565b5090565b8280548282559060005260206000209081019282156122d65760005260206000209182015b828111156122d557828290805460018160011615610100020316600290046122c5929190612475565b509160010191906001019061229c565b5b5090506122e391906124fc565b5090565b604051806040016040528060608152602001606081525090565b828054600181600116156101000203166002900490600052602060002090601f016020900481019282601f1061234257805160ff1916838001178555612370565b82800160010185558215612370579182015b8281111561236f578251825591602001919060010190612354565b5b50905061237d9190612381565b5090565b6123a391905b8082111561239f576000816000905550600101612387565b5090565b90565b6123e691905b808211156123e257600081816101000a81549073ffffffffffffffffffffffffffffffffffffffff0219169055506001016123ac565b5090565b90565b828054828255906000526020600020908101928215612438579160200282015b82811115612437578251829080519060200190612427929190612301565b5091602001919060010190612409565b5b50905061244591906124fc565b5090565b61247291905b8082111561246e57600081816124659190612528565b5060010161244f565b5090565b90565b828054600181600116156101000203166002900490600052602060002090601f016020900481019282601f106124ae57805485556124eb565b828001600101855582156124eb57600052602060002091601f016020900482015b828111156124ea5782548255916001019190600101906124cf565b5b5090506124f89190612381565b5090565b61252591905b8082111561252157600081816125189190612549565b50600101612502565b5090565b90565b508054600082559060005260206000209081019061254691906124fc565b50565b50805460018160011615610100020316600290046000825580601f1061256f575061258e565b601f01602090049060005260206000209081019061258d9190612381565b5b50565b6000813590506125a0816134a1565b92915050565b6000815190506125b5816134b8565b92915050565b600082601f8301126125cc57600080fd5b81356125df6125da8261325a565b61322d565b915080825260208301602083018583830111156125fb57600080fd5b61260683828461344e565b50505092915050565b60008135905061261e816134cf565b92915050565b60006020828403121561263657600080fd5b600061264484828501612591565b91505092915050565b6000806040838503121561266057600080fd5b600061266e85828601612591565b925050602061267f85828601612591565b9150509250929050565b60008060006060848603121561269e57600080fd5b60006126ac86828701612591565b93505060206126bd86828701612591565b92505060406126ce8682870161260f565b9150509250925092565b6000806000606084860312156126ed57600080fd5b60006126fb86828701612591565b935050602084013567ffffffffffffffff81111561271857600080fd5b612724868287016125bb565b925050604084013567ffffffffffffffff81111561274157600080fd5b61274d868287016125bb565b9150509250925092565b60008060006060848603121561276c57600080fd5b600061277a86828701612591565b935050602084013567ffffffffffffffff81111561279757600080fd5b6127a3868287016125bb565b92505060406127b48682870161260f565b9150509250925092565b600080604083850312156127d157600080fd5b60006127df85828601612591565b92505060206127f08582860161260f565b9150509250929050565b60006020828403121561280c57600080fd5b600061281a848285016125a6565b91505092915050565b60006020828403121561283557600080fd5b600082013567ffffffffffffffff81111561284f57600080fd5b61285b848285016125bb565b91505092915050565b60006020828403121561287657600080fd5b60006128848482850161260f565b91505092915050565b600061289983836128f0565b60208301905092915050565b60006128b18383612a56565b905092915050565b60006128c58383612b4f565b905092915050565b60006128d98383612e81565b905092915050565b6128ea81613418565b82525050565b6128f9816133d0565b82525050565b612908816133d0565b82525050565b6000612919826132d6565b6129238185613359565b935061292e83613286565b8060005b8381101561295f578151612946888261288d565b975061295183613318565b925050600181019050612932565b5085935050505092915050565b6000612977826132e1565b612981818561336a565b93508360208202850161299385613296565b8060005b858110156129cf57848403895281516129b085826128a5565b94506129bb83613325565b925060208a01995050600181019050612997565b50829750879550505050505092915050565b60006129ec826132f7565b6129f6818561338c565b935083602082028501612a08856132b6565b8060005b85811015612a445784840389528151612a2585826128b9565b9450612a308361333f565b925060208a01995050600181019050612a0c565b50829750879550505050505092915050565b6000612a61826132ec565b612a6b818561337b565b935083602082028501612a7d856132a6565b8060005b85811015612ab95784840389528151612a9a85826128b9565b9450612aa583613332565b925060208a01995050600181019050612a81565b50829750879550505050505092915050565b6000612ad682613302565b612ae0818561339d565b935083602082028501612af2856132c6565b8060005b85811015612b2e5784840389528151612b0f85826128cd565b9450612b1a8361334c565b925060208a01995050600181019050612af6565b50829750879550505050505092915050565b612b49816133e2565b82525050565b6000612b5a8261330d565b612b6481856133ae565b9350612b7481856020860161345d565b612b7d81613490565b840191505092915050565b6000612b938261330d565b612b9d81856133bf565b9350612bad81856020860161345d565b612bb681613490565b840191505092915050565b6000612bce6013836133bf565b91507f596f7520617265206e6f742070617469656e74000000000000000000000000006000830152602082019050919050565b6000612c0e6012836133bf565b91507f596f7520617265206e6f7420446f63746f7200000000000000000000000000006000830152602082019050919050565b6000612c4e6019836133bf565b91507f4164647265737320697320616c726561647920446f63746f72000000000000006000830152602082019050919050565b6000612c8e6011836133bf565b91507f4164647265737320697320446f63746f720000000000000000000000000000006000830152602082019050919050565b6000612cce600f836133bf565b91507f496e76616c69642070617469656e7400000000000000000000000000000000006000830152602082019050919050565b6000612d0e600e836133bf565b91507f496e76616c696420446f63746f720000000000000000000000000000000000006000830152602082019050919050565b6000612d4e6010836133bf565b91507f4e6f7420796f75722070617469656e74000000000000000000000000000000006000830152602082019050919050565b6000612d8e6012836133bf565b91507f416464726573732069732070617469656e7400000000000000000000000000006000830152602082019050919050565b6000612dce6015836133bf565b91507f496e73756666696369656e74206665652073656e7400000000000000000000006000830152602082019050919050565b6000612e0e601a836133bf565b91507f4164647265737320697320616c72656164792070617469656e740000000000006000830152602082019050919050565b6000612e4e6016836133bf565b91507f41646472657373206973206e6f742070617469656e74000000000000000000006000830152602082019050919050565b60006040830160008301518482036000860152612e9e8282612b4f565b91505060208301518482036020860152612eb88282612b4f565b9150508091505092915050565b612ece8161340e565b82525050565b6000602082019050612ee960008301846128ff565b92915050565b6000602082019050612f0460008301846128e1565b92915050565b6000606082019050612f1f60008301866128e1565b612f2c60208301856128ff565b612f396040830184612ec5565b949350505050565b6000604082019050612f5660008301856128e1565b612f636020830184612ec5565b9392505050565b6000606082019050612f7f60008301866128ff565b612f8c60208301856128e1565b612f996040830184612ec5565b949350505050565b60006020820190508181036000830152612fbb818461290e565b905092915050565b60006040820190508181036000830152612fdd818561290e565b90508181036020830152612ff1818461296c565b90509392505050565b6000602082019050818103600083015261301481846129e1565b905092915050565b600060208201905081810360008301526130368184612acb565b905092915050565b60006020820190506130536000830184612b40565b92915050565b600060208201905081810360008301526130738184612b88565b905092915050565b600060408201905081810360008301526130958185612b88565b905081810360208301526130a98184612b88565b90509392505050565b600060208201905081810360008301526130cb81612bc1565b9050919050565b600060208201905081810360008301526130eb81612c01565b9050919050565b6000602082019050818103600083015261310b81612c41565b9050919050565b6000602082019050818103600083015261312b81612c81565b9050919050565b6000602082019050818103600083015261314b81612cc1565b9050919050565b6000602082019050818103600083015261316b81612d01565b9050919050565b6000602082019050818103600083015261318b81612d41565b9050919050565b600060208201905081810360008301526131ab81612d81565b9050919050565b600060208201905081810360008301526131cb81612dc1565b9050919050565b600060208201905081810360008301526131eb81612e01565b9050919050565b6000602082019050818103600083015261320b81612e41565b9050919050565b60006020820190506132276000830184612ec5565b92915050565b6000604051905081810181811067ffffffffffffffff8211171561325057600080fd5b8060405250919050565b600067ffffffffffffffff82111561327157600080fd5b601f19601f8301169050602081019050919050565b6000819050602082019050919050565b6000819050602082019050919050565b6000819050602082019050919050565b6000819050602082019050919050565b6000819050602082019050919050565b600081519050919050565b600081519050919050565b600081519050919050565b600081519050919050565b600081519050919050565b600081519050919050565b6000602082019050919050565b6000602082019050919050565b6000602082019050919050565b6000602082019050919050565b6000602082019050919050565b600082825260208201905092915050565b600082825260208201905092915050565b600082825260208201905092915050565b600082825260208201905092915050565b600082825260208201905092915050565b600082825260208201905092915050565b600082825260208201905092915050565b60006133db826133ee565b9050919050565b60008115159050919050565b600073ffffffffffffffffffffffffffffffffffffffff82169050919050565b6000819050919050565b60006134238261342a565b9050919050565b60006134358261343c565b9050919050565b6000613447826133ee565b9050919050565b82818337600083830152505050565b60005b8381101561347b578082015181840152602081019050613460565b8381111561348a576000848401525b50505050565b6000601f19601f8301169050919050565b6134aa816133d0565b81146134b557600080fd5b50565b6134c1816133e2565b81146134cc57600080fd5b50565b6134d88161340e565b81146134e357600080fd5b5056fea2646970667358221220251ae6c1cb0ff126e887f89c55c9422d1b51c54ee95784c985038690ca7a99d264736f6c63430006010033",
  "source": "pragma solidity ^0.6.1;\npragma experimental ABIEncoderV2;\n\n\nimport './HealthToken.sol';\n\ncontract HealthCare {\n\n    HealthToken token;\n    address public owner;\n\n    constructor (address _token) public {\n        token = HealthToken(_token);\n        owner = msg.sender;\n    }\n\n\n    struct DATA {\n        string file;\n        string prescription;\n    }\n\n    struct PatientData{\n        address Patient;\n        string[] data;\n    }\n\n\n\n    mapping(address => bool) public isDoc; // doctor\n    address[] public allDoctors;\n\n    mapping(address => bool) public isPatient; // patient\n    address[] public allPatients;\n\n    mapping(address => uint256) public docFee; // doctor while registering doctor\n\n    mapping(address => string[]) public patientData; // patient addFile\n\n    mapping(address => DATA[]) public prescription; // patient when doctor add prescription\n\n    mapping(address=> address[]) public docPatientList; // doctor and patient list while sending file\n    mapping(address => mapping(address => bool)) public docPatient; // above bool\n    mapping(address => mapping(address => string[])) public docData; // above sending file\n\n\n    // patient function\n\n    event PatientAdded(\n        address Patient\n    );\n\n    function addPatient() public{\n        // msg.sender is patient\n        require(isDoc[msg.sender] == false, \"Address is Doctor\");\n        require(isPatient[msg.sender] == false, \"Address is already patient\");\n        isPatient[msg.sender] = true;\n        allPatients.push(msg.sender);\n        emit PatientAdded(msg.sender);\n    }\n\n\n    function getAllPatients() public view returns(address[] memory){\n        return allPatients;\n    }\n\n    function allPatientsData() public view returns(string[] memory){\n        // msg.sender is patient\n        return patientData[msg.sender];\n    }\n\n    function allPrescriptions() public view returns(DATA[] memory){\n        // msg.sender is patient\n        return prescription[msg.sender];\n    }\n\n    event DoctorAdded(\n        address Doctor,\n        uint256 Fee\n    );\n\n    function addDoctor(uint256 _fees) public{\n        // msg.sender is doctor\n        require(isDoc[msg.sender] == false, \"Address is already Doctor\");\n        require(isPatient[msg.sender] == false, \"Address is patient\");\n        allDoctors.push(msg.sender);\n        isDoc[msg.sender] = true;\n        docFee[msg.sender] = _fees;\n        emit DoctorAdded(msg.sender, _fees);\n    }\n\n    event FeeChanged(\n      address Doctor,\n      uint256 Fee\n    );\n\n    function changeFee(uint256 _fees) public{\n      require(isDoc[msg.sender] == false, \"Address is already Doctor\");\n      require(isPatient[msg.sender] == false, \"Address is patient\");\n      docFee[msg.sender] = _fees;\n      emit FeeChanged(msg.sender, _fees);\n    }\n\n\n    function getAllDoctors() public view returns(address[] memory){\n        return allDoctors;\n    }\n\n\n    function addFile(string memory _fileHash) public{\n        // msg.sender is patient\n        require(isPatient[msg.sender] == true, \"Address is not patient\");\n        patientData[msg.sender].push(_fileHash);\n    }\n\n\n    function sendFile(address _doc, string memory _fileHash, uint256 _amount) public {\n        // msg.sender is patient\n        require(isPatient[msg.sender] == true, \"You are not patient\");\n        require(isDoc[_doc] == true, \"Invalid Doctor\");\n        require(_amount == docFee[_doc], \"Insufficient fee sent\");\n\n        token.approveContract(address(this), msg.sender, _amount);\n\n        token.transferFrom(msg.sender, address(this), _amount);\n\n        docPatientList[_doc].push(msg.sender);\n        docPatient[_doc][msg.sender] = true;\n        docData[_doc][msg.sender].push(_fileHash);\n    }\n\n\n    // doctor's function\n\n\n    function sendPrescription(address _patient, string memory _filehash, string memory _prescription) public {\n        // msg.sender is doctor\n        require(isDoc[msg.sender] == true, \"You are not Doctor\");\n        require(isPatient[_patient] == true, \"Invalid patient\");\n        require(docPatient[msg.sender][_patient]==true, \"Not your patient\");\n\n        DATA memory d;\n        d.file = _filehash;\n        d.prescription = _prescription;\n\n        prescription[_patient].push(d);\n\n        token.transfer(msg.sender, docFee[msg.sender]);\n    }\n\n\n    address[] pat;\n    string[][] da;\n\n    function allPatient() public returns(address[] memory, string[][] memory){\n        // msg.sender is doctor\n        address[] memory p;\n        pat = p;\n        string[][] memory s;\n        da = s;\n        for(uint i = 0; i < docPatientList[msg.sender].length; i++){\n            pat.push(docPatientList[msg.sender][i]);\n            da.push(docData[msg.sender][docPatientList[msg.sender][i]]);\n        }\n        return(pat, da);\n    }\n\n}",
  "sourcePath": "D:\\Documents\\upwork\\healthcareDTU\\contracts\\HealthCare.sol",
  "compiler": {
    "name": "solc",
    "version": "0.6.1+commit.e6f7d5a4.Emscripten.clang"
  },
  "schemaVersion": "3.0.23",
  "updatedAt": "2021-02-27T19:33:32.221Z",
  "networkType": "ethereum",
  "devdoc": {
    "methods": {}
  },
  "userdoc": {
    "methods": {}
  }
}